:100200000C9450010C946D010C946D010C946D01D3
:100210000C946D010C946D010C946D010C946D01A6
:100220000C946D010C946D010C946D010C946D0196
:100230000C946D010C946D010C946D010C946D0186
:100240000C946D010C946D010C946D010C946D0176
:100250000C946D010C946D010C946D010C946D0166
:100260000C946D010C946D010C946D010C946D0156
:100270000C946D010C946D010C946D010C946D0146
:100280000C946D010C946D010C946D010C946D0136
:100290000C94A7020C946D010C946D010C946D01EB
:1002A00011241FBECFEFCDBFDFE3DEBF18E2A0E019
:1002B000B8E2E4E8FAE002C005900D92A430B1077C
:1002C000D9F728E2A4E0B8E201C01D92A631B20736
:1002D000E1F70E940B030C94EE040C94000190E0F3
:1002E000FC01E55AF54B20812F3F51F08E5C954B78
:1002F000DC01EC91B0E2EB9FF0011124FC5F218363
:10030000089590E0FC01E55AF54B40814F3F09F418
:100310004CC0FC01E052F64BE081EE2329F0E130C5
:1003200099F010F0E63010F1FC01EE5CF54BE08145
:10033000A0E2EA9FF0011124FC5F2081242311F147
:10034000672BF1F446830895E091010ADC01A75F71
:10035000B54B5C915C5F21E030E001C0220F5A9503
:10036000EAF720952E232093010ADECF20E1E29FB9
:10037000F0011124E05AF54F21812F7E2183D4CF43
:1003800045830895875F954BDC018C91309771F020
:100390008F3F61F07096E80FF11D9FB7F894808150
:1003A000672B39F4877F80839FBF0895F0E0E0E0FA
:1003B000F4CF8860F8CFEF92FF920F931F93CF9303
:1003C000DF93E82EF12CF701E75FF54BC081CF3FBB
:1003D000A1F1072F162FD82F0E946F01F701E052CD
:1003E000F64BE081E13071F010F0E63068F170E03A
:1003F00060E08D2FDF91CF911F910F91FF90EF90D3
:100400000C9481012FB7F8948C2F90E0FC01EE0F33
:10041000FF1FE85CF54F108301832FBF2091010A75
:10042000049641E050E0BA0102C0660F771F8A953A
:10043000E2F7CB01822B8093010ADF91CF911F91CC
:100440000F91FF90EF90089570E1E79FF001112464
:10045000E05AF54F8FB7F8949485948715878FBF2E
:10046000818180618183E9CFCF93DF938FB7F89447
:10047000209112283091132840911428509115286A
:10048000E091BA0A9091B60A90FF06C02F5F3F4FE5
:100490004F4F5F4FE091BA0A8FBFA0911028B091E3
:1004A0001128C0910E28D0910F280E94D404EC9FEF
:1004B0009001ED9F300D1124620F731F811D911D5E
:1004C000DF91CF9108958F929F92AF92BF92CF927A
:1004D000DF92EF92FF924B015C010E9434026B01AC
:1004E0007C01A8EEB3E0A50194010E94D404C60EDD
:1004F000D71EE81EF91EC616D706E806F90618F438
:100500000E943402F8CF0E9434026C157D058E05DE
:100510009F05C8F3FF90EF90DF90CF90BF90AF9012
:100520009F908F90089570E060E085E00E948101C7
:1005300070E060E086E00E94810170E060E087E0AA
:100540000E94810170E060E088E00C9481011F92BC
:100550000F920FB60F9211242F933F934F935F93F7
:100560006F937F938F939F93AF93BF9340910A288C
:1005700050910B2860910C2870910D2880910828CB
:10058000909109282091062830910728420F531F87
:10059000611D711D2091042830910528820F931F41
:1005A000883E23E0920730F0885E93404F5F5F4FB4
:1005B0006F4F7F4F809308289093092840930A2813
:1005C00050930B2860930C2870930D28809112286B
:1005D00090911328A0911428B09115280196A11D7F
:1005E000B11D8093122890931328A0931428B093E0
:1005F000152881E08093B60ABF91AF919F918F91AA
:100600007F916F915F914F913F912F910F900FBE0E
:100610000F901F90189588ED90E084BF9093610033
:1006200080E094E2A4EFB0E080930028909301284A
:10063000A0930228B09303288091020686608093DD
:100640000206809100068160809300068091020678
:100650008F7C809302068091A0008F788093A00009
:10066000809102068061809302061092E20581E08B
:100670008093E40583E08093010A8FEF90E08093FC
:10068000260A9093270A80E890E08093380A909396
:10069000390A80933A0A90933B0A80933C0A9093DC
:1006A0003D0A8BE08093000A8091E505816080938C
:1006B000E5058091E50582608093E505E0E8FAE0D4
:1006C00037E02FEF90E885E031832487958780839A
:1006D0007096E03C4AE0F407B9F780E094E080933C
:1006E00010289093112880911028909111282FEFB5
:1006F00030E0B9010E94C00460930E2870930F2867
:100700008091102890911128E8EEF3E0BF010E943B
:10071000C004609306287093072880911028909158
:100720001128BF010E94C0048093042890930528DB
:100730002093BC0A3093BD0A8091B50A81608093F2
:10074000B50A84E08093B00A8091B00A81608093FA
:10075000B00A78948CE10E946F0161E070E08CE156
:100760000E9481018DE10E946F0161E070E08DE1E6
:100770000E94810183E20E946F0161E070E083E2E8
:100780000E9481018EE10E946F0161E070E08EE1C4
:100790000E94810189E00E946F018AE00E946F013E
:1007A00085E00E946F0186E00E946F0187E00E9451
:1007B0006F0188E00E946F0170E060E085E00E94B8
:1007C000810170E060E086E00E94810170E060E0FD
:1007D00087E00E94810170E060E088E00E94810172
:1007E000C0E0D0E066E470E089E00E94DB016AE5E9
:1007F00070E08AE00E94DB016AE070E080E090E057
:100800000E94630261E070E085E00E94810170E077
:1008100060E086E00E94810161E070E087E00E9474
:10082000810170E060E088E00E94810168EB7BE07C
:1008300080E090E00E9463020E94930268EE73E001
:1008400080E090E00E94630260E470E089E00E9432
:10085000DB0169E370E08AE00E94DB016AE070E09E
:1008600080E090E00E94630270E060E085E00E941A
:10087000810161E070E086E00E94810170E060E04B
:1008800087E00E94810161E070E088E00E948101C0
:1008900068EB7BE080E090E00E9463020E9493029C
:1008A00068EE73E080E090E00E9463026AE470E02A
:1008B00089E00E94DB0162E670E08AE00E94DB01D1
:1008C0006AE070E080E090E00E94630261E070E026
:1008D00085E00E94810170E060E086E00E94810175
:1008E00070E060E087E00E94810161E070E088E0F4
:1008F0000E94810167E073E080E090E00E94630263
:100900000E94930268EE73E080E090E00E94630230
:100910006AE470E089E00E94DB0162E670E08AE050
:100920000E94DB016AE070E080E090E00E946302D8
:1009300070E060E085E00E94810161E070E086E0A7
:100940000E94810161E070E087E00E94810170E017
:1009500060E088E00E9481016CE573E080E090E057
:100960000E9463020E94930268EB7BE080E090E0CB
:100970000E946302209709F435CF0E94000032CF15
:10098000AA1BBB1B51E107C0AA1FBB1FA617B707B5
:1009900010F0A61BB70B881F991F5A95A9F78095D1
:1009A0009095BC01CD0108950E94DF04A59F900D94
:1009B000B49F900DA49F800D911D11240895A29FB6
:1009C000B001B39FC001A39F700D811D1124911D23
:1009D000B29F700D811D1124911D0895F894FFCFD1
:1009E00000000003000102000001010000000000FF
:1009F00000000000000000000000000000000000F7
:100A000000000000000000000005040005060204CC
:100A100001030001000102000102030405020303B7
:100A2000050406050406070307000102020300018E
:100A30000706020200050201050004010104040486
:100A4000030303030303000002000003010100008D
:100A500001020202020505050503052010012040E0
:100A6000041002080102010204010204081020041B
:100A7000080820104020104080088001020404086B
:040A800001028040AF
:040A84000024F40056
:0400000300000200F7
:00000001FF
