:100200000C9451010C9479010C9479010C947901AE
:100210000C9479010C9479010C9479010C94790176
:100220000C9479010C9479010C9479010C94790166
:100230000C9479010C9479010C9479010C94790156
:100240000C9479010C9479010C9479010C94790146
:100250000C9479010C9479010C9479010C94790136
:100260000C9479010C9479010C9479010C94790126
:100270000C9479010C9479010C9479010C94790116
:100280000C9479010C9479010C9479010C94790106
:100290000C9435050C94BF050C9499050C947901C8
:1002A000080611241FBECFEFCDBFDFE3DEBF18E28B
:1002B000A0E0B8E2EEE6F6E102C005900D92AA30A9
:1002C000B107D9F728E2AAE0B8E201C01D92A93B24
:1002D000B207E1F711E0C1E5D1E004C02197FE01CA
:1002E0000E94B408C035D107C9F70E942F060C94AC
:1002F0009A0A0C940001FC0154894589252F30E0AD
:10030000842F90E0821B930B541710F0CF96089522
:1003100001970895FC0192898389981761F0A38958
:10032000AE0FBF2FB11D59968C9193899F5F9F731C
:10033000938B90E008958FEF9FEF0895FC019289D1
:100340008389981731F08389E80FF11D818D90E042
:1003500008958FEF9FEF0895FC0192892389892FDB
:1003600090E0805C9F4F821B91098F7399270895BD
:10037000CF93DF93EC01E881F9810680F781E02DCE
:100380000995EC85FD8586818F738683EC85FD85D7
:1003900085818F7585838B898A8B198ADF91CF91AF
:1003A0000895CF93DF93FC0194898589C485D58511
:1003B000981306C08D818F7D8D83DF91CF91089535
:1003C000A589AE0FBF2FB11DA75ABF4F2C918589AC
:1003D00090E001968F739927858B80E48C83A485A8
:1003E000B58512962C93948985899813E6CFA485B8
:1003F000B58515968C9115978F7D15968C93878969
:100400008823D9F2808D80931301178AD6CFDC011F
:100410001C96ED91FC910FB607FE03C0258125FDCA
:1004200004C0248125FD0C94D1010895EF92FF9220
:100430000F931F93CF93DF93EC0181E0898B9C890D
:100440008D8998131CC0AC85BD8514968C9114972A
:1004500085FF15C012966C93AC85BD8580E414961B
:100460008C93EC85FD8585818F7D858381E090E08F
:10047000DF91CF911F910F91FF90EF9008958091A0
:10048000110180FF08C080911301888F8E898093AD
:10049000130181E08F8BF62E0C8910E00F5F1F4F48
:1004A0000F731127E02E8D898E1104C0CE010E949A
:1004B0000702F9CFEC89EC0FFD2FF11DE75AFF4F32
:1004C000F0820C8BEC85FD8585818062CECFCF9349
:1004D000DF93FC0121892223C9F0EC0180911101F5
:1004E00080FF08C080911301808F8689809313015B
:1004F00081E0878BEC85FD85858185FD03C0848146
:1005000086FD04C0CE010E940702F4CFDF91CF9197
:100510000895282F30E0F901ED54FA4A40814F3F09
:1005200009F44EC0893258F4F901E85CFA4AE081D6
:10053000EE2329F0E13099F010F0E63010F1F901E6
:10054000E657FA4AE081A0E2EA9FF0011124FC5F3D
:100550008081842311F1672BF1F446830895E091A3
:10056000010AD901AF59BA4A5C915C5F81E090E021
:1005700001C0880F5A95EAF780958E238093010A6F
:10058000DECF80E1E89FF0011124E05AF54F818130
:100590008F7E8183D4CF458308952F593A4AD9015C
:1005A0008C91309771F08F3F61F07096E80FF11DDC
:1005B0009FB7F8948081672B39F4877F80839FBF32
:1005C0000895F0E0E0E0F4CF8860F8CFCF93DF93B8
:1005D00090E0FC01ED54FA4A20812F3F69F0FC01C4
:1005E000E657FA4AE08130E2E39FF0011124FC5F14
:1005F0006130710521F42183DF91CF9108958F59E6
:100600009A4AEC01A881AF3F69F0CF014096A80F4C
:10061000B92FB11D9FB7F89422838C9188608C9379
:100620009FBFEACFB0E0A0E0F5CFCF92DF92EF928C
:10063000FF920F931F93CF93DF93EC016A017B012D
:10064000022F8989882339F0E881F9810288F389AA
:10065000E02DCE01099598898091E205892B809340
:10066000E2051FB7F89460E070E281EA97E0A70125
:1006700096010E94600869017A018FEFC81AD80AB2
:10068000E80AF80AF694E794D794C794EC85FD85B8
:1006900086818D7F8683EC85FD8586818683198A98
:1006A000A09123110A2E000CBB0BA70196010E94FA
:1006B000AC0820E034E040E050E00E948208EC8585
:1006C000FD85C20ED31EE41EF51EC086D186EC85C4
:1006D000FD850783EC85FD858681806C8683EC85AE
:1006E000FD858581806885838E85893220F462E06E
:1006F00070E00E94E6028F85893220F461E070E0AC
:100700000E9489028F85893220F461E070E00E94A6
:10071000E6021FBFDF91CF911F910F91FF90EF90E5
:10072000DF90CF900895CF93DF938FB7F894209107
:100730001A2830911B2840911C2850911D28E091C7
:10074000BA0A9091B60A90FF06C02F5F3F4F4F4FF5
:100750005F4FE091BA0A8FBFA0911828B091192875
:10076000C0911628D09117280E94A108EC9F9001F3
:10077000ED9F300D1124620F731F811D911DDF91BC
:10078000CF910895AF92BF92CF92DF92EF92FF92F6
:100790000F931F93CF93DF936C017B018B01040FA9
:1007A000151FEB015E01AE18BF08C017D10759F045
:1007B0006991D601ED91FC910190F081E02DC60187
:1007C0000995892B79F7C501DF91CF911F910F9181
:1007D000FF90EF90DF90CF90BF90AF90089581E0B1
:1007E0000895DC01ED91FC910088F189E02D23E072
:1007F00030E00994FC0101900020E9F73197AF0146
:10080000481B590BBC018EE198E20C94C2038F92F5
:100810009F92AF92BF920F931F93CF93DF93CDB769
:10082000DEB7A197CDBFDEBF19A2423008F44AE07F
:100830008E010F5D1F4F842E912CB12CA12CA50190
:1008400094010E946008E62FB901CA01EA30DCF485
:10085000E05DD801EE938D01232B242B252B79F716
:1008600090E080E0109719F0CD010E94FA03A19664
:10087000CDBFDEBFDF91CF911F910F91BF90AF90A1
:100880009F908F900895E95CE4CFCF92DF92EF9232
:10089000FF92CF93DF936B017C016DE28EE198E2D2
:1008A0000E941602EC0166277727CB016C197D099F
:1008B0008E099F094AE00E9407048C0F9D1FDF915B
:1008C000CF91FF90EF90DF90CF9008950C94FA03B2
:1008D0004F925F926F927F928F929F92AF92BF9250
:1008E000CF92DF92EF92FF926B017C01AC019B01F2
:1008F0000E94950A882381F086EF95E5FF90EF909E
:10090000DF90CF90BF90AF909F908F907F906F902F
:100910005F904F900C94FA0346015701E894B7F8A2
:100920002FEF3FEF4FE75FE7C501B4010E94950A43
:1009300081110DC02FEF3FEF4FE75FE7C501B40115
:100940000E94360918161CF48AEF95E5D7CF2FEFD1
:100950003FEF4FE75FE4C701B6010E94230A181674
:100960001CF48EEF95E5CACF2FEF3FEF4FE75FEC1A
:10097000C701B6010E94360987FDF3CF20E030E0C1
:10098000A901C701B6010E943609B12CA12C87FF2D
:100990000AC06DE28EE198E20E9416025C01F7FA4D
:1009A000F094F7F8F0942AE037ED43EA5BE3C701EF
:1009B000B6010E94CA082B013C010E9442096B014A
:1009C0007C010E9471099B01AC01C301B2010E942C
:1009D000C9082B013C014AE0C701B6010E94070487
:1009E0007C01EA0CFB1C82E096E50E94FA03E80E0B
:1009F000F91E20E030E040E251E4C301B2010E9460
:100A0000280A2B013C010E9442094B01B12CA12C68
:100A10004AE0C501B4010E940704E80EF91EC501B1
:100A2000B4010E9471099B01AC01C301B2010E9493
:100A3000C90820E030E040E251E40E94280A0E9408
:100A4000420990E080E04AE00E9407048E0D9F1D5D
:100A5000FF90EF90DF90CF90BF90AF909F908F90DE
:100A60007F906F905F904F9008951F920F920FB6F6
:100A70000F9211242F933F934F935F936F937F9324
:100A80008F939F93AF93BF93409112285091132857
:100A90006091142870911528809110289091112848
:100AA00020910E2830910F28420F531F611D711D98
:100AB00020910C2830910D28820F931F883E23E04F
:100AC000920730F0885E93404F5F5F4F6F4F7F4FCC
:100AD0008093102890931128409312285093132844
:100AE000609314287093152880911A2890911B28E0
:100AF000A0911C28B0911D280196A11DB11D8093C5
:100B00001A2890931B28A0931C28B0931D2881E0DD
:100B10008093B60ABF91AF919F918F917F916F9112
:100B20005F914F913F912F910F900FBE0F901F90AB
:100B300018951F920F920FB60F9211242F933F9387
:100B40004F935F936F937F938F939F93AF93BF93D5
:100B5000EF93FF938EE198E20E94D101FF91EF9114
:100B6000BF91AF919F918F917F916F915F914F91C5
:100B70003F912F910F900FBE0F901F9018951F92CD
:100B80000F920FB60F9211242F933F934F935F93C1
:100B90006F937F938F939F93AF93BF93EF93FF9345
:100BA000E0912A28F0912B28818181FD2FC060815E
:100BB000809130288F5F8F7390913128891741F091
:100BC000E0913028F0E0E25EF74D618F80933028AD
:100BD0008091B7289091B828009739F0DC01ED9109
:100BE000FC910190F081E02D0995FF91EF91BF916B
:100BF000AF919F918F917F916F915F914F913F91B5
:100C00002F910F900FBE0F901F9018958081EDCF00
:100C1000EEE1F8E21282138288EE93E0A0E0B0E009
:100C200084839583A683B78380EE95E58083918343
:100C300080E698E0848795878AE186878BE18787BD
:100C400080E4808B128A138A148A158A86E2868B46
:100C5000178A108E1092B7281092B828089588ED40
:100C600090E084BF9093610080E094E2A4EFB0E054
:100C70008093002890930128A0930228B093032822
:100C80008091020686608093020680910006816052
:100C900080930006809102068F7C809302068091EB
:100CA000A0008F788093A0008091020680618093DD
:100CB00002061092E20581E08093E40583E08093D0
:100CC000010A8FEF90E08093260A9093270A80E82C
:100CD00090E08093380A9093390A80933A0A90936F
:100CE0003B0A80933C0A90933D0A8BE08093000A74
:100CF0008091E50581608093E5058091E50582603E
:100D00008093E505E0E8FAE037E02FEF90E885E032
:100D100031832487958780837096E03C4AE0F4070E
:100D2000B9F780E094E08093182890931928809177
:100D30001828909119282FEF30E0B9010E94380847
:100D4000609316287093172880911828909119287D
:100D5000E8EEF3E0BF010E94380860930E2870931C
:100D60000F288091182890911928BF010E943808F7
:100D700080930C2890930D282093BC0A3093BD0AD1
:100D80008091B50A81608093B50A84E08093B00AAF
:100D90008091B00A81608093B00A789461E070E03D
:100DA0008CE10E94E60261E070E08CE10E94890221
:100DB00061E070E08DE10E94E60261E070E08DE1AB
:100DC0000E94890261E070E083E20E94E60261E035
:100DD00070E083E20E94890261E070E08EE10E948F
:100DE000E60261E070E08EE10E94890240E855E28F
:100DF00060E070E08EE198E20E94F10384E096E505
:100E00000E94660432E0C32ED12CE12CF12C44E682
:100E1000842E912CA12CB12C00E010E0109206063B
:100E200081E08093080680910B0680FFFCCF9FB77E
:100E3000F89480911006C09111069FBFDC2FC82F37
:100E40008AE096E50E9466042E010D2E000C6608CD
:100E50007708D7FFFFC0C301B2010E94450486E1B5
:100E600096E50E94FA03C301B2010E94730920E0D3
:100E700030E040E151E40E94280A20E030E040E800
:100E80005AE30E94280A29EE32EA4BE05FE30E940F
:100E9000280A2B013C0189E196E50E946604C30102
:100EA000B2010E94680483E296E50E94660486E22D
:100EB00096E50E94660460E070E080E090E40E94A5
:100EC00068048CE296E50E94660460E070E080E8C9
:100ED00090E40E94680486E196E50E94FA0383E3A9
:100EE00096E50E946604C301B2010E94680486E18F
:100EF00096E50E94FA03C301B2010E943B099B01DF
:100F0000AC012250310941095109A4E6B0E00E9428
:100F1000A108A70196010E94820829013A0182E5F1
:100F200096E50E946604B201052C000C880B990B13
:100F300097FF96C00E94450486E196E50E94FA0359
:100F4000242C312C552466247724C301B201660F6A
:100F5000771F881F991FA50194010E9482082D5FA9
:100F60003F4F4F4F5F4FE90120910428293270F421
:100F700083E090E0BE010E944C0861E070E0892BA4
:100F800011F070E060E0822F0E9489022091062813
:100F9000293270F484E090E0BE010E944C0861E0C8
:100FA00070E0892B11F070E060E0822F0E948902CE
:100FB00020910828293270F485E090E0BE010E945B
:100FC0004C0861E070E0892B11F070E060E0822F46
:100FD0000E94890220920A2830920B2883E696E527
:100FE0000E94660460910A2870910B28072E000C5D
:100FF000880B990B97FF38C00E9445048BE696E555
:101000000E9466040E9493032B013C0120E2420EE1
:1010100021EA521E27E0621E711C40E2441641EA9A
:10102000540647E06406710438F40E9493034616A0
:10103000570668067906C8F30E9493036415750580
:1010400086059705C8F30115110509F4E7CE0E943E
:101050000000E4CE4AE0C301B2010E940704FFCEC3
:101060004AE00E94070468CF4AE00E940704C6CF06
:10107000AA1BBB1B51E107C0AA1FBB1FA617B707BE
:1010800010F0A61BB70B881F991F5A95A9F78095DA
:101090009095BC01CD01089597FB072E16F400949E
:1010A00007D077FD09D00E94380807FC05D03EF430
:1010B000909581959F4F0895709561957F4F089504
:1010C000A1E21A2EAA1BBB1BFD010DC0AA1FBB1F4C
:1010D000EE1FFF1FA217B307E407F50720F0A21BBE
:1010E000B30BE40BF50B661F771F881F991F1A942B
:1010F00069F760957095809590959B01AC01BD0155
:10110000CF010895052E97FB1EF400940E949908C4
:1011100057FD07D00E94600807FC03D04EF40C94E2
:10112000990850954095309521953F4F4F4F5F4F0F
:10113000089590958095709561957F4F8F4F9F4F43
:1011400008950E94BA08A59F900DB49F900DA49F8A
:10115000800D911D11240895B7FF0C94A1080E94E1
:10116000A108821B930B0895EE0FFF1F0590F491C9
:10117000E02D0994A29FB001B39FC001A39F700D01
:10118000811D1124911DB29F700D811D1124911D8F
:1011900008955058BB27AA270E94E1080C94E9093A
:1011A0000E94DB0938F00E94E20920F039F49F3FE9
:1011B00019F426F40C94D8090EF4E095E7FB0C948E
:1011C000D209E92F0E94FA0958F3BA176207730788
:1011D0008407950720F079F4A6F50C941C0A0EF408
:1011E000E0950B2EBA2FA02D0B01B90190010C0137
:1011F000CA01A0011124FF27591B99F0593F50F44F
:10120000503E68F11A16F040A22F232F342F4427A6
:10121000585FF3CF469537952795A795F04053959E
:10122000C9F77EF41F16BA0B620B730B840BBAF06E
:101230009150A1F0FF0FBB1F661F771F881FC2F7D9
:101240000EC0BA0F621F731F841F48F487957795ED
:101250006795B795F7959E3F08F0B0CF9395880FA7
:1012600008F09927EE0F9795879508950E94AE098B
:1012700008F481E008950E9442096894B1110C9429
:101280001D0A08950E94020A88F09F5798F0B92F0E
:101290009927B751B0F0E1F0660F771F881F991FAB
:1012A0001AF0BA95C9F714C0B13091F00E941C0A27
:1012B000B1E008950C941C0A672F782F8827B85F37
:1012C00039F0B93FCCF3869577956795B395D9F703
:1012D0003EF490958095709561957F4F8F4F9F4F0D
:1012E0000895E89409C097FB3EF490958095709519
:1012F00061957F4F8F4F9F4F9923A9F0F92F96E962
:10130000BB279395F695879577956795B795F111D6
:10131000F8CFFAF4BB0F11F460FF1BC06F5F7F4F73
:101320008F4F9F4F16C0882311F096E911C0772385
:1013300021F09EE8872F762F05C0662371F096E88E
:10134000862F70E060E02AF09A95660F771F881F5D
:10135000DAF7880F9695879597F90895990F000801
:10136000550FAA0BE0E8FEEF16161706E807F90777
:10137000C0F012161306E407F50798F0621B730B12
:10138000840B950B39F40A2661F0232B242B252B93
:1013900021F408950A2609F4A140A6958FEF811D36
:1013A000811D089597F99F6780E870E060E00895D7
:1013B0009FEF80EC089500240A941616170618066D
:1013C0000906089500240A94121613061406050649
:1013D0000895092E0394000C11F4882352F0BB0FDA
:1013E00040F4BF2B11F460FF04C06F5F7F4F8F4F3D
:1013F0009F4F089557FD9058440F551F59F05F3F78
:1014000071F04795880F97FB991F61F09F3F79F026
:1014100087950895121613061406551FF2CF4695A8
:10142000F1DF08C0161617061806991FF1CF86952A
:101430007105610508940895E894BB27662777270E
:10144000CB0197F908950E94AE0908F48FEF089533
:101450000E943B0A0C94E9090E94DB0938F00E94C3
:10146000E20920F0952311F00C94D2090C94D809CC
:1014700011240C941D0A0E94FA0970F3959FC1F380
:10148000950F50E0551F629FF001729FBB27F00D32
:10149000B11D639FAA27F00DB11DAA1F649F662787
:1014A000B00DA11D661F829F2227B00DA11D621FD6
:1014B000739FB00DA11D621F839FA00D611D221F90
:1014C000749F3327A00D611D231F849F600D211D74
:1014D000822F762F6A2F11249F5750409AF0F1F0F7
:1014E00088234AF0EE0FFF1FBB1F661F771F881F60
:1014F00091505040A9F79E3F510580F00C94D209BD
:101500000C941D0A5F3FE4F3983ED4F386957795DB
:101510006795B795F795E7959F5FC1F7FE2B880F05
:10152000911D9695879597F908950E94AE09880BAD
:08153000990B0895F894FFCF18
:10153800000000030001020000010100000000009B
:101548000000000000000000000000000000000093
:101558000000000000000000000504000506020469
:101568000103000100010200010203040502030354
:10157800050406050406070307000102020300012B
:101588000706020200050201050004010104040423
:10159800030303030303000002000003010100002A
:1015A800010202020205050505030520100120407D
:1015B80004100208010201020401020408102004B8
:1015C8000808201040201040800880010204040808
:1015D80001028040000000001602C2037B0167027E
:1015E800AC018A019E01F1031503B801EF036E6196
:1015F8006E00696E66006F7666002E00796179214B
:101608000A004144432076616C75653A20000D0A52
:1016180000566F6C746167653A2000560A006D6960
:101628006E3A2000206D61783A200043616C637542
:101638006C6174656420566F6C74616765205061D5
:1016480072616D657465723A2000446972656374ED
:101658002050657263656E743A20004D6F746F7226
:061668003A2000250A00F3
:0A166E000024F4000B000C000D0036
:0400000300000200F7
:00000001FF
